:020000020000FC
:1000000002E00EBF0FE50DBF07E007BB99274AE0EE
:100010005AE06AE07AE08AE098BB000012E035D04E
:100020004A9529F44AE001E090275A9505C000005E
:10003000000000000000000029F45AE000E09027D2
:100040006A9505C00000000000000000000029F4CF
:100050006AE000E090277A9505C0000000000000EB
:100060000000000029F47AE002E090278A9505C09C
:100070000000000000000000000021F48AE004E01D
:100080009027CACF00000000C7CF1A95F1F7089556
:00000001FF
